:020000040800F2
:10000000F80400204501000837210008271C0008DB
:1000100035210008C10700089D29000800000000E4
:100020000000000000000000000000008323000822
:10003000E50900080000000081230008852400086D
:100040005F0100085F0100085F0100085F01000810
:100050005F0100085F0100085F0100085F01000800
:100060005F0100085F0100085F0100085F010008F0
:100070005F0100085F0100085F0100085F010008E0
:100080005F0100085F0100085F0100085F010008D0
:100090005F0100085F0100085F0100085F010008C0
:1000A0005F0100085F0100085F0100085F010008B0
:1000B0005F0100085F0100085F0100085F010008A0
:1000C0005F0100085F0100085F0100085F01000890
:1000D0005F010008912900085F0100085F01000826
:1000E0005F0100085F0100085F0100085F01000870
:1000F0005F0100085F0100085F0100085F01000860
:100100005F0100085F0100085F0100085F0100084F
:100110005F0100085F0100085F0100085F0100083F
:100120005F0100085F0100085F0100085F0100082F
:10013000DFF80CD000F0B4FA00480047A532000800
:10014000F80400200648804706480047FEE7FEE71F
:10015000FEE7FEE7FEE7FEE7FEE7FEE7FEE7FEE777
:10016000E724000831010008202A04DB203A21FAA4
:1001700002F00021704721FA02F3D040C2F12002C0
:10018000914008431946704740EA01039B0703D09A
:1001900009E008C9121F08C0042AFAD203E011F8C6
:1001A000013B00F8013B521EF9D27047D2B201E088
:1001B00000F8012B491EFBD270470022F6E710B56C
:1001C00013460A4604461946FFF7F0FF204610BDC5
:1001D000034611F8012B00F8012B002AF9D118462B
:1001E0007047420005D0C0F3C7525242914201DC31
:1001F0000020704700EBC1507047C10F80EAE070EB
:100200000844CA079623002100F063B800F00042BA
:1002100030F000400AD0C10D01F56071C0F3160046
:1002200042EA0151C20840071143704700200146CD
:10023000704730B50B46014600202022012409E01A
:1002400021FA02F59D4205D303FA02F5491B04FA8F
:1002500002F52844151EA2F10102F1DC30BD2DE9A2
:10026000F05F0546002092469B468846064681463A
:1002700040241BE02846414647462246FFF774FFCC
:1002800053465A46C01A914110D311461846224689
:1002900000F018FA2D1A67EB01084F46224601209C
:1002A000002100F00FFA17EB00094E41201EA4F1C7
:1002B0000104DFDC484631462A464346BDE8F09F4C
:1002C0000029A8BF7047401C490008BF20F001006A
:1002D000704710B4B0FA80FC00FA0CF050EA010448
:1002E00004BF10BC704749B1CCF1200421FA04F4DA
:1002F00011FA0CF118BF012121430843A3EB0C01B3
:10030000CB1D4FEA00614FEA102042BF002010BC15
:10031000704700EBC35010440029A4BF10BC7047C5
:10032000401C490008BF20F0010010BC70472DE9B7
:10033000FE4F804681EA0300C00F0C46009021F07A
:10034000004123F00045B8EB0200A94105D2404628
:10035000214690461C460B46024623F000401043BF
:1003600047D0270DC7F30A00C3F30A510290401A81
:10037000019040286BDAC3F3130040F4801B00980F
:10038000924620B10023D2EB030A63EB0B0B0198DA
:100390005946C0F14002504600F094F906460D4619
:1003A00050465946019A00F09CF910EB0800614153
:1003B000002487EA115284EAE7731A4340D0009A76
:1003C00062B3019A012A4FEA075215DC001B61EB68
:1003D00002014FF0004202EA0752CDE90042001C40
:1003E00041F5801132462B4600F09CF903B0BDE880
:1003F000F08F40462146F9E7001B61EB0201001C2B
:1004000041F5801300185B412018A2F5001747EB57
:10041000030140EAD570B6196D4111E06D084FEA4D
:10042000360645EAC0754FEA0752001B61EB020130
:10043000001C41F5801149084FEA30000019514174
:1004400032462B4603B0BDE8F04F00F05CB900988F
:10045000012240000023D0EB020263EBE07300981E
:1004600021464FEAE074B8EB000061EB0401E9E7D4
:1004700083F000435BE781F0004158E72DE9FE4F30
:1004800081EA030404F0004421F0004100944FF09D
:10049000000B23F0004350EA01045ED052EA03044B
:1004A0005BD0C3F30A54C1F30A552C44A4F2F334CD
:1004B0000194A0FB0254C1F3130141F48011C3F372
:1004C000130343F4801301FB024400FB034E840A30
:1004D000970A44EA815447EA8357A4FB07680295C8
:1004E0008D0A05FB07854FEA932C04FB0C54270566
:1004F000029D4FEA065847EA1637B5EB08056EEB42
:10050000070C870E920E47EA811742EA8312A7FB77
:100510000201B6EB0B0164EB00042B0D43EA0C3334
:100520005E1844EB1C50DA465146E7FB0201C5F366
:1005300013044FEA0B3343EA14534FEA0432019C8D
:1005400043EA0603A4F10C040294009CCDE900B434
:1005500000F0E8F803B0BDE8F08F00200146F9E7AD
:100560002DE9F04D81EA030404F0004B21F0004531
:1005700014464FF0000A23F0004150EA050220D053
:1005800054EA01021DD0C5F30A570246C5F313030E
:10059000C1F31300C1F30A5640F4801543F48013ED
:1005A000A7EB0608101BD64608F2FD3873EB0500D2
:1005B00002D308F1010801E092185B41B8F1000F85
:1005C00003DA00200146BDE8F08D00204FF48011D1
:1005D000064684460EE0171B73EB050705D3121B76
:1005E00063EB050306434CEA010C49084FEA30006F
:1005F00092185B4150EA0107EDD152EA030012D094
:1006000082EA040083EA0501084305D0101BAB41D0
:1006100006D20122002306E000224FF0004302E050
:100620006FF0010253101AEB06004CEB085110EB6F
:100630000A0041EB0B01BDE8F04D00F064B8C1F3D6
:100640000A52C1F3130140F2FF3341F480119A4280
:1006500002DA00200146704740F233439A42A2F288
:10066000334202DC5242FFF77FBD00F02BB800009E
:1006700030B5041E71F1000404DB4FF00044404229
:1006800064EB0101141E73F1000405DB1C464FF0FE
:100690000043524263EB0403994208BF904230BDCD
:1006A000064C074D06E0E06840F0010394E80700BF
:1006B00098471034AC42F6D3FFF73EFD5C49000882
:1006C0007C490008202A04DB203A00FA02F10020CD
:1006D00070479140C2F1200320FA03F31943904080
:1006E0007047202A06DBCB17203A41FA02F043EA92
:1006F000E07306E041FA02F3D040C2F120029140DB
:1007000008431946704710B5141E73F1000408DA47
:10071000401C41F1000192185B411A4301D120F0C5
:10072000010010BD2DE9F04D92469B4611B1B1FA82
:1007300081F202E0B0FA80F220329046FFF7C2FF69
:1007400004460F4640EA0A0041EA0B0153465A4666
:10075000084313D0114653EA010019D0C8F14002F2
:100760005046FFF701FD05460E46504659464246A3
:10077000FFF7A8FF084305D0012004E020463946D2
:10078000BDE8F08D0020054346EAE0762C43374370
:100790000A986305E40AA0EB08000022FD0A44EA77
:1007A00047540A3002D500200146E9E70105101937
:1007B0006941DDE9084500196941BDE8F04DA2E74E
:1007C000FEE7000070B5094C05460020216848622C
:1007D000204600F087FE2068416A89B2A942FBD317
:1007E000BDE87040014800F0AFBE00001C000020D2
:1007F00010B500F0BDF8442000F0C4F840F2EE203F
:1008000000F0AEF900F0B4F8BE2000F0BBF800F044
:100810006BF8044600F068F8000202B252EA0400E5
:100820006FF0030401D5C043401CFFF7E6FC2146EE
:10083000BDE81040FFF7D5BC10B500F01BF8012251
:100840002021044800F09FFA00F078F8BDE810403D
:1008500000F01EB8000801401FB5202000900020C5
:10086000019002906946024800F08CF91FBD00001B
:10087000000801401FB520200090012001900320B6
:1008800003906946014800F07DF91FBD0008014052
:1008900070B50024FFF7E0FF124D04E0641CE4B2E1
:1008A0000120FFF78FFF2021284600F067FA10B1E2
:1008B000642CF3D30FE0642C0DD2002404E0641CFC
:1008C000E4B20120FFF77EFF2021284600F056FA0F
:1008D00018B1F02C04D3012070BDF02CEFD3FAE74F
:1008E000002070BD000801402DE9F0410026124FA4
:1008F000354600BFFFF7BEFF00222021384600F03A
:1009000042FA0A20FFF75EFFFFF7A6FF20213846D4
:1009100000F034FA01280DD000242D20FFF752FFFB
:10092000AC4034436D1CEDB2E6B2082DE2D3304644
:10093000BDE8F0810124F0E70008014010B5FFF7A1
:1009400099FF0A4C00222021204600F01CFA40F2B8
:10095000EE20FFF737FF01222021204600F013FA96
:10096000BDE810400F20FFF72DBF00000008014038
:1009700010B5FFF7E3FFFFF78BFFBDE81040CC2079
:10098000AFF3008070B50546FFF774FF144E0024E6
:1009900015F0010F4FEA55054FF000024FF020010E
:1009A00030460BD000F0EFF90520FFF70BFF0122D6
:1009B0002021304600F0E7F941200AE000F0E3F999
:1009C0004620FFF7FFFE01222021304600F0DBF930
:1009D0000220FFF7F7FE641CE4B2082CD8D370BDE8
:1009E00000080140704772B6FEE710B590F821107C
:1009F0000022022905D00421816380F820200120F3
:100A000010BD01680B6823F00E030B6001680B68D2
:100A100023F001030B6090F84030C46B012101FA10
:100A200003F3636080F8211080F82020104610BD89
:100A30002DE9F05F90F821100024022903D0042151
:100A40008163012485E001680A6822F00E020A60D1
:100A500001680A6822F001020A603F4E3E4FB2155B
:100A6000DFF8F4C0DFF8F090DFF8ECA0DFF8E8B0D2
:100A7000DFF8E4E00168783F13011502ACF1640C83
:100A8000A9F15009AAF13C0AABF1280BAEF1140E02
:100A90004FF48018B14227D9B9420ED0614512D027
:100AA00049451DD0514518D0594518D0714501D13F
:100AB000424615E0294EB14201D1012210E0274EF5
:100AC0001436B14201D110220AE0244E2836B14238
:100AD00006D0224A3C32914201D11A4600E02A4611
:100AE0001E49091F0A602BE0B94213D0614517D097
:100AF000494522D051451DD059451DD0714501D1E0
:100B000042461AE0B14202D14FF0807215E0134E16
:100B1000B14201D1012210E0104E1436B14201D190
:100B200010220AE00D4E2836B14206D00B4A3C3264
:100B3000914201D11A4600E02A46074980394A60AD
:100B4000012180F82110002180F82010416B01B1B3
:100B500088472046BDE8F09F80000240080402401C
:100B600070B5044600F014F90546601C02D0044834
:100B70000078044400F00CF9401BA042FAD370BD89
:100B80000C0000202DE9F84FDFF8C8910024A9F1EE
:100B9000040B23460F2709F1040AABF1040ED1E040
:100BA0000125A54006EA0502AA4276D1DFF8A8C1D0
:100BB0004E68A6EB0C0866452BD00DDC032E34D016
:100BC00005DC36B3012E19D0022E2FD11BE0112ED9
:100BD00016D0122E2AD119E0B8F5881F19D006DCDC
:100BE000B8F5803F15D0B8F5801F1FD111E0B8F5DA
:100BF000001F0ED0B8F5041F18D10AE0CB6815E02D
:100C0000CB681B1D12E0CB6808330FE0CB680C33B8
:100C10000CE08B682BB1012B4FF0080303D045612A
:100C200004E0042302E0056100E00023FF2A01D86C
:100C3000064601E000F104064FEA840501D9A5F15A
:100C40002005D6F8008007FA05FC28EA0C0803FA0C
:100C500005F548EA0508C6F800804D68ED0070D536
:100C60003E4DAE6946F00106AE61AD6924F0030663
:100C700005F0010500953A4D06EB050CDCF808502F
:100C8000A607360F07FA06F825EA0805DFF8D4802C
:100C9000404503D14FF0000825E052E0DFF8C8805E
:100CA000404502D14FF001081DE0DFF8C08040450B
:100CB00002D14FF0020816E0DFF8B480404502D1BF
:100CC0004FF003080FE0DFF8AC80404502D14FF051
:100CD000040808E0DFF8A080404502D14FF0050885
:100CE00001E04FF0060808FA06F848EA0508CCF8D3
:100CF00008804D68D9F80060ED024D4601D51643D5
:100D000000E096432E604D68DAF80060AD0255466B
:100D100001D5164300E096432E604D68DBF8006075
:100D2000AD035D4601D5164300E096432E604D6845
:100D3000DEF80060ED03754601D5164300E09643EA
:100D40002E60641C0A681646E2407FF429AFBDE8B5
:100D5000F88F00000804014000001110001002404C
:100D60000000014000080140000C0140001001405B
:100D70000014014000180140001C01408068084038
:100D800000D0012070470AB1016170470904FBE7F8
:100D900001488068704700000C000020024881680C
:100DA00002781144816070470C000020074810B59C
:100DB000016841F010010160032000F075F8002087
:100DC00000F006F800F024F8002010BD00200240DA
:100DD00070B50D4D04464FF47A712878B1FBF0F0F0
:100DE0000A490968B1FBF0F000F0DCFA48B9102CB0
:100DF00007D200222146501E00F036F800206C6019
:100E000070BD012070BD00000C0000201800002003
:100E10000C4808B5816941F001018161816901F0E7
:100E200001010091C16941F08051C161C06900F0C8
:100E3000805000900448416821F0E06141F08061F9
:100E4000416008BD0010024000000140002809DB9D
:100E500000F01F02012191404009800000F1E020D4
:100E6000C0F8001170470000F0B40E4B1B680C4630
:100E7000C3F30223C3F10705042D00D90425191D6E
:100E8000072901D2002300E0DB1E012606FA05F146
:100E9000491E214099409E40761E16403143F0BCC9
:100EA00001F092BD0CED00E0064900F00702086871
:100EB0004FF6FF03184040EA0220034A104308603F
:100EC000704700000CED00E00000FA052DE9F04746
:100ED0000F46050061D0434E306800F00700B8426D
:100EE00009D2306820F0070038433060306800F0E5
:100EF0000700B84251D128683B4C810712D5400702
:100F000003D5606840F4E06060602878000703D58E
:100F1000606840F4605060606068A96820F0F0008C
:100F2000084360602878C00728D06868012810D07E
:100F30002168022810D0890700292EDA616821F083
:100F4000030101436160FFF723FF804641F28839C6
:100F50000DE021688903EFE78901EDE7FFF718FF4E
:100F6000A0EB0801494502D90320BDE8F08760687D
:100F7000696800F00C00B0EB810FEFD1306800F031
:100F80000700B8420BD9306820F0070038433060C2
:100F9000306800F00700B84201D00120E5E728786A
:100FA000400705D56068E96820F4E06008436060A8
:100FB0002878000706D56068296920F4605040EA67
:100FC000C100606000F038F86168084AC1F303119D
:100FD000515CC8400649086006480068FFF7F8FE03
:100FE0000020C2E7002002400010024042490008F1
:100FF00018000020100000200448054900684968D6
:10100000044AC1F30221515CC84070471800002017
:101010000010024052490008044805490068496828
:10102000044AC1F3C221515CC84070471800002037
:1010300000100240524900080E4A51680E4801F063
:101040000C03042B11D0082B0FD10C48C1F38343A0
:10105000C903C05C0AD55168084AC1F34041921ED9
:10106000515C054A5043B0FBF1F0704704494843D6
:10107000704700000010024000127A003249000858
:1010800000093D002DE9F84F040070D02078C04DD4
:10109000C00749D06868C0F38100012807D068689C
:1010A000C0F38100022809D16868C00306D528680A
:1010B000800339D560680028E7D035E06068B0F576
:1010C000803F0BD010B1B0F5A02F11D0286820F4CC
:1010D00080302860286820F4802002E0286840F4EE
:1010E00080302860606890B1FFF752FE06460AE043
:1010F000286840F480202860F0E700BFFFF748FE32
:10110000801B642873D828688003F7D50CE0FFF7AC
:101110003FFE064605E000BFFFF73AFE801B64284D
:10112000F0D828688003F7D420789A4E80074FF0D3
:1011300001094FF0000839D5686810F00C0F07D08E
:101140006868C0F38100022809D16868C00306D42A
:101150002868800714D52069012808D110E020698B
:10116000B0B1C6F80090FFF713FE074605E00AE1AC
:10117000FFF70EFEC01B0228C4D828688007F7D5E9
:101180002868616920F0F80040EAC10028600DE09D
:10119000C6F80080FFF7FCFD074604E0FFF7F8FD06
:1011A000C01B022823D828688007F7D420780007BE
:1011B0002CD57948A169D9B1C0F80090FFF7E8FDB6
:1011C000074604E0FFF7E4FDC01B02280FD8686A59
:1011D0008007F7D571484FF4FA510068B0FBF1F081
:1011E000009000BF0098411E0091FAD20EE080E00E
:1011F000C0F80080FFF7CCFD074604E0FFF7C8FD0C
:10120000C01B022875D8686A8007F7D42078400789
:1012100060D5E8690027C00008D4E86940F0805034
:10122000E861E869012700F0805000905C4801689F
:10123000C90513D40168834641F480710160FFF74A
:10124000A7FD824606E000BFFFF7A2FDA0EB0A0063
:1012500064284ED8DBF80000C005F5D5E068012809
:101260000AD008B1052813D0286A20F001002862AE
:10127000286A20F0040002E0286A40F00100286299
:10128000E06841F2883B98B1FFF782FD82460BE0AF
:10129000286A40F004002862EEE700BFFFF778FDFF
:1012A000A0EB0A0159455AD8286A8007F6D50CE008
:1012B000FFF76EFD824605E0FFF76AFDA0EB0A012D
:1012C00059454CD8286A8007F6D41FB1E86920F048
:1012D0008050E861E06988B36968C1F3810102293F
:1012E00044D00228C6F8608004D0FFF751FD0446C0
:1012F00038E034E0FFF74CFD074604E0FFF748FD17
:10130000C01B02282BD828688001F7D4206AB0F5CA
:10131000803F05D16868A16820F400300843686008
:10132000D4E908010843696821F47411084368602E
:10133000C6F86090FFF72CFD044606E025E000BFEC
:10134000FFF726FD001B022809D828688001F7D581
:101350001BE000BFFFF71CFD001B022802D9032081
:10136000BDE8F88F28688001F4D40EE00128F7D09A
:101370006868226A00F48031914204D1616A00F405
:101380007010884201D00120EAE70020E8E7000061
:101390000010024000004242800442421800002037
:1013A0000070004010B5401EB0F1807F01D30120D5
:1013B00010BD4FF0E02460610F21601701F004FBC5
:1013C0000020A06107202061002010BD70B590F8BA
:1013D0003C20012A2CD0012480F83C40022280F8D5
:1013E0003D2003685A689D6822F070060A683243FF
:1013F0005A60104B02689A420ED00F4B9A420BD0A3
:10140000B2F1804F08D00D4B9A4205D00C4B9A4256
:1014100002D00C4B9A4204D1496825F0800319434D
:10142000916080F83D40002180F83C10084670BD76
:10143000022070BD002C0140003401400004004037
:1014400000080040000C004010B5040003D094F8E0
:101450003D0010B107E0012010BD002084F83C00E1
:10146000204600F01FF8022084F83D00211D20686E
:1014700001F03AF8012084F8460084F83E0084F830
:101480003F0084F8400084F8410084F8420084F86A
:10149000430084F8440084F8450084F83D000020AF
:1014A00010BD000008B50C4A01680C48914207D1F4
:1014B000816941F400618161806900F4006009E0A4
:1014C000074A914207D1C16941F00201C161C06977
:1014D00000F00200009008BD002C01400010024006
:1014E0000004004090F83D10012901D00120704710
:1014F000022180F83D1000680E4988420ED00E4946
:1015000088420BD0B0F1804F08D00C49884205D0FA
:101510000B49884202D00B49884204D1816801F00E
:101520000701062903D0016841F001010160002094
:1015300070470000002C01400034014000040040CE
:1015400000080040000C004001680A6A41F21113D3
:101550001A4207D10A6A9B101A4203D10A6822F084
:1015600001020A60012180F83D100020704770B52B
:10157000044690F83C000025012817D0012684F885
:101580003C60022084F83D002068826822F07702E7
:1015900022F47F4282600868502838D00DDC202871
:1015A0004FD005DC90B3102811D14AE0022070BD65
:1015B000302846D040280AD13BE060282FD0702840
:1015C0000DD0B0F5805F03D0B0F5005F12D00125DB
:1015D00084F83D60002084F83C00284670BDCB684C
:1015E000D1E90121206800F0D2FF2068816841F034
:1015F000770109E0CB68D1E90121206800F0C7FF3D
:101600002068816841F480418160E1E719E0CA689F
:101610004968206801F090F85021206806E0CA6807
:101620004968206801F099F86021206800F0B9FF4E
:10163000CEE7CA684968206801F07EF8402120683A
:10164000F4E7226801461046F0E7000000B585B0D7
:101650000021009101910291039100680B49884299
:1016600011D10B48816941F00401816180696946AB
:1016700000F004000490802000900220019003906C
:101680000448FFF77FFA05B000BD000000040040E9
:10169000001002400008014070B5044690F83C007C
:1016A00000260D4601280FD0012084F83C006AB1C5
:1016B000042A1DD0082A2FD00C2A3FD00126002052
:1016C00084F83C00304670BD022070BD206800F0F8
:1016D00071FF2068816941F008018161206881699A
:1016E00021F004018161206881692A69114311E0B8
:1016F000206800F08FFF2068816941F400618161FA
:101700002068816921F480618161206881692A698A
:1017100041EA02218161D2E7206800F0B1FF206830
:10172000C16941F00801C1612068C16921F004016B
:10173000C1612068C1692A69114311E0206800F085
:10174000D3FF2068C16941F40061C1612068C169AB
:1017500021F48061C1612068C1692A6941EA0221DE
:10176000C161ACE710B5040003D094F83D0010B19E
:1017700007E0012010BD002084F83C00204600F066
:101780001EF8022084F83D00211D206800F0ACFE08
:10179000012084F8460084F83E0084F83F0084F875
:1017A000400084F8410084F8420084F8430084F843
:1017B000440084F8450084F83D00002010BD7047C7
:1017C00010B50446022249B104290ED0082913D0CD
:1017D00094F84100012816D0012010BD94F83E0075
:1017E0000128F9D184F83E200FE094F83F00012849
:1017F000F2D184F83F2008E094F840000128EBD1B2
:1018000084F8402001E084F841200122206800F0A3
:10181000B1FE13492068134A884201D0904203D197
:10182000436C43F400434364206888420DD09042E7
:101830000BD0B0F1804F08D00B49884205D00B493E
:10184000884202D00A49884204D1816801F0070128
:10185000062903D0016841F001010160002010BD9C
:10186000002C01400034014000040040000800400A
:10187000000C004070477047F8B5016804460868DE
:10188000CA684B6910F00F0F4FF000055AD003F0F3
:10189000010602F49077374365D0C10705D0D10522
:1018A00003D5616C41F001016164410705D5D90799
:1018B00003D0616C41F002016164810705D5D9074D
:1018C00003D0616C41F004016164010707D502F0A7
:1018D0002001314303D0616C41F008016164616C07
:1018E00000293BD0800604D5900602D5204600F0A2
:1018F00075FF20684069616CC0F3801001F0080139
:10190000014320462BD000F042FF2068406940068A
:1019100021D52068143050E8001F21F0400140E834
:101920000012002AF5D1E06BA8B16D494163E06B6C
:10193000FFF77EF8002811D0E06B416B01B0BDE8E5
:10194000F040084783060ED593060CD52046BDE827
:10195000F84000F043BF2046FFF78DFFF8BDFFF7CA
:101960008AFF6564F8BD266B2023012E7CD1C60654
:101970007AD5D60678D508684868009048694FF04F
:101980000206400640D5E16B086840680004000C80
:10199000E8D0A28D8242E5D9E085886920282DD043
:1019A00020680C3050E8001F21F4807140E80012DC
:1019B000002AF5D12168143151E8000F20F0010010
:1019C00041E80002002AF5D12068143050E8001FD9
:1019D00021F0400140E80012002AF5D184F842309D
:1019E000256320680C3050E8001F21F0100140E80A
:1019F0000012002AF5D1E06BFEF7F7FF6663A08DB9
:101A0000E18D401A81B22AE0A08DE18D401A81B2A9
:101A1000E08D0028A6D00029A4D022680C3252E81C
:101A2000000F20F4907042E80007002FF5D12068E5
:101A3000143050E8002F22F0010240E80027002F68
:101A4000F5D184F84230256320680C3050E8002F2F
:101A500022F0100240E80023002BF5D166632046F7
:101A6000FFF708FFF8BDFFE705062BD5150629D5BA
:101A700094F841002128F5D1A068B0F5805F01D12C
:101A80002069B0B1206A411C216221680078486059
:101A9000E08C401E0004000CE084E3D12068C168A3
:101AA00021F08001C1602068C16841F04001C1603F
:101AB000D8E7206A0088C0F308004860206A801CCC
:101AC0002062E5E74006CDD55006CBD5CA68204652
:101AD00022F04002CA6084F8413000F0A3F8C1E768
:101AE0007F27000870B5040004D094F84100002559
:101AF00010B106E0012070BD84F84050204600F08F
:101B000023F8242084F841002068C16821F40051A2
:101B1000C160204600F0C4FE2068016921F49041B4
:101B200001612068416921F02A0141612068C16892
:101B300041F40051C1606564202084F8410084F8BC
:101B400042006563002070BD30B585B0002400946C
:101B50000194029403940068184988422CD11848D3
:101B6000816941F480418161816901F4804104917E
:101B7000816941F0040181618069124D00F0040027
:101B800004904FF400700090022001900320039015
:101B900069462846FEF7F6FF2815CDE90004694698
:101BA00028460294FEF7EEFF002211462520FFF79B
:101BB0005BF92520FFF74AF905B030BD0038014038
:101BC000001002400008014090F84230202B01D064
:101BD0000220704721B11AB10023036300F0BCBE9C
:101BE0000120704700680C49884213D10B48817866
:101BF00063290DD06D2903D0732903D1012100E0A1
:101C00000221017005490122891C0548FFF7DCBF4C
:101C10000021F6E770470000003801400000002076
:101C2000AC0000207047FEE72DE9F0410546012099
:101C300000F032F8174F4FF48066002231463846E4
:101C4000FFF7A1F800244FF40068280601D4002211
:101C500000E0012241463846FFF795F86806050E78
:101C60000220FEF7AFFD012231463846FFF78BF820
:101C70000220FEF7A7FD002231463846FFF783F821
:101C80000220FEF79FFD641CE4B2082CDDD3BDE802
:101C9000F0810000000C01401FB5064B1968D3E924
:101CA0000223CDE9001069460348CDE90223FEF77F
:101CB00069FF1FBD30330008000C014010B5012042
:101CC000FFF7EAFF0C4C01224FF440612046FFF77A
:101CD0005AF80420FEF776FD0022E1142046FFF7B3
:101CE00052F80420FEF76EFD002221152046BDE8C3
:101CF0001040FFF748B80000000C014010B501206B
:101D0000FFF7CAFF0C4C00224FF440612046FFF75A
:101D10003AF8012291022046FFF735F80420FEF739
:101D200051FD0122D1022046FFF72DF8BDE81040F9
:101D30000420FEF747BD0000000C01402DE9F041F2
:101D400000242046FFF7A8FF0122144DD602314699
:101D50002846FFF718F80120FEF734FD012297020C
:101D600039462846FFF70FF80120FEF72BFD08E063
:101D7000641CE4B2FA2C04D9FFF7C0FF0120BDE8CF
:101D8000F08131462846FEF7F9FF0028F0D1002205
:101D900039462846FEF7F7FF0020F0E7000C014027
:101DA0002DE9F04F85B00024294800940194029455
:101DB0000394816941F040018161816901F0400132
:101DC0000491816941F004018161816901F004019C
:101DD0000491816941F0080181618069DFF87490A4
:101DE00000F008000490002220214846FEF7CBFFB7
:101DF000DFF864A0002220215046FEF7C4FFDFF880
:101E00005CB04FF44268002241465846FEF7BBFFE3
:101E100020270226012500970396CDE90154694643
:101E20004846FEF7AFFE00970396CDE90154694698
:101E30005046FEF7A7FECDF800800396CDE9015489
:101E400069465846FEF79EFE05B0BDE8F08F0000DB
:101E5000001002400018014000080140000C014041
:101E600010B586B00024174800940194029403949E
:101E700004941349059401604721C0E901144FF609
:101E8000FF71C0E9031444618461FFF7DDFA08B112
:101E9000FEF7A9FD4FF48050009069460948FFF70E
:101EA00066FB08B1FEF79FFD049404A9054805945C
:101EB000FFF78CFA002801D0FEF795FD06B010BDA3
:101EC000002C01401C00002010B58EB000240794A7
:101ED000089409940A940B941C2168460C94FEF70C
:101EE0006CF91E481C4901604721C0E9011440F209
:101EF000E731C0E903148461FFF7A6FA08B1FEF7E1
:101F000072FD4FF48050079007A91448FFF72FFB8C
:101F100008B1FEF768FD1148FFF724FC08B1FEF791
:101F200062FD0B940BA90D480C94FFF74FFA08B112
:101F3000FEF759FD6020CDE90004029404226946B1
:101F400006480494FFF7A8FB08B1FEF74CFD0348D0
:101F5000FFF77CFB0EB010BD0004004064000020C1
:101F60000C4810B50A4901604FF4E131416000218D
:101F700081600C22C160C0E904128161C161FFF778
:101F8000B1FD002803D0BDE81040FEF72CBD10BD08
:101F900000380140AC0000202DE9F0438BB0FEF783
:101FA00027FC534C534FDFF850910026534D40F21D
:101FB000E7386060B84204DA2968C1F83880012245
:101FC00009E04C4949420844B0F5801F09D229680C
:101FD000C8208863002220214846FEF7D4FE6670A0
:101FE00015E028688663FEF7D3FEA168411AB1F5B3
:101FF000FA7F0CD3A060607800284CD0002060707D
:1020000000284AD0002220214846FEF7BCFE00F0FE
:1020100093F800221146104600F0ACF81722102168
:10202000002000F0A7F81A222021002000F0A2F8DA
:1020300000221146022000F09DF80122102102200A
:1020400000F098F82EA22021022000F0D5F8606858
:10205000FEF7DCF802460B462AA105A800F0A0FC1A
:1020600005AA2821022000F0C7F81422002104202C
:1020700000F080F815221021042000F07BF820A247
:102080002021042000F0B8F82868806B80B2404519
:1020900005D11EA106E00120B1E70122B3E7C8285F
:1020A0000DD01DA16846FEF793F86A460021042072
:1020B00000F0A2F86068B84203DA042205E019A132
:1020C000F0E71B49884206DA02220021062000F0D0
:1020D00051F8032205E018220021062000F04AF8FA
:1020E00019221021062000F045F80BB0BDE8F0835E
:1020F000000000200000E041000C014064000020CE
:102100003A000000252E31662043000053706565BB
:10211000643A20300000000053706565643A203254
:102120000000000053706565643A20310000000033
:102130000000F041FEE7FEE770B5A0B0002426469F
:102140006D460021204600F095F850B900216E54EC
:10215000491CC9B28029FAD38021684600F0C5F82D
:1021600010B1012020B070BD641CE4B2082CE8D38B
:102170000020F7E72DE9F0410E4F16468846054648
:1021800000244146284600F075F838B904EB4600B3
:1021900007EB8010102100F0A8F810B10120BDE875
:1021A000F0816D1C641CE4B2EDB2022CE9D3002076
:1021B000F5E70000303900082DE9F04105460D48EB
:1021C0000F46002400EB02163946284600F052F86C
:1021D00028B906EBC400082100F087F810B10120EF
:1021E000BDE8F0816D1C641CE4B2EDB2022CEBD3AF
:1021F0000020F5E74033000870B514460D4606464A
:102200000AE0D2B229463046FFF7D6FF08B10120D6
:1022100070BD0835EDB2641C2278203A5E2AF0D9F0
:10222000002070BD00B587B018220CA16846FDF7EC
:10223000ABFF1521684600F035F858B9FFF77CFF71
:1022400040B9AF208DF800000121684600F02AF85F
:10225000002800D0012007B000BD0000AED580A846
:102260003FD300408D14A1C8DA1281EFD9F1DB40D1
:10227000A600000008B5072801D87F2901D9012050
:1022800008BDB0308DF80000102000EB11108DF863
:10229000020001F00F008DF801000321684600F0F4
:1022A00001F808BD70B50D460646FFF707FD78201A
:1022B000FFF7BAFCFFF742FD68B90020FFF7B4FC56
:1022C000FFF73CFD38B9002409E0305DFFF7ACFCB6
:1022D000FFF734FD08B1012070BD641CA4B2AC420C
:1022E000F3D3FFF70BFD002070BD70B50D46064619
:1022F000FFF7E4FC7820FFF797FCFFF71FFD68B9B4
:102300004020FFF791FCFFF719FD38B9002409E0E0
:10231000305DFFF789FCFFF711FD08B1012070BDAA
:10232000641CA4B2AC42F3D3FFF7E8FC002070BDFC
:1023300010B5FFF701FF00211B220846FFF71AFF27
:102340001C2210210020FFF715FF094940F2E73059
:1023500009688863012220210648FEF714FD012246
:1023600020210548FEF70FFD04490020487010BDEC
:1023700064000020000C0140001801400000002013
:102380007047704710B5FFF7D7FE002106220846B8
:10239000FFF7F0FE072210210020FFF7EBFE30A22E
:1023A00020210020FFF728FF2EA228210020FFF780
:1023B00023FF082200210220FFF7DCFE0922102162
:1023C0000220FFF7D7FE26A220210220FFF714FFEC
:1023D0000E2228210220FFF7CDFE0F2238210220F5
:1023E000FFF7C8FE0C2200210420FFF7C3FE0D22D8
:1023F00010210420FFF7BEFE19A220210420FFF7C0
:10240000FBFE102228210420FFF7B4FE1122382100
:102410000420FFF7AFFE0A2200210620FFF7AAFEE4
:102420000B2210210620FFF7A5FE0DA22021062079
:10243000FFF7E2FE0EA228210620FFF7DDFE0E497F
:1024400040F2E73009688863012220210B48FEF73B
:102450009AFC0122BDE8104020210948FEF793BCF8
:102460003A00000045494532343031300000000068
:10247000323032340000000064000020000C0140C3
:1024800000180140FEF78ABC30B58FB0282168469D
:10249000FDF793FE14210AA8FDF78FFE0121080421
:1024A000CDE900100024029402250491CDE90750E3
:1024B0004FF4E01009906846FEF7E4FD08B172B6EB
:1024C000FEE70F20CDE90A054FF48060CDE90C400E
:1024D00002210AA80E94FEF7F9FC002801D072B67A
:1024E000FEE70FB030BD7047F0B502681C4B1D4DC4
:1024F0001D4E1E4F1E4C4FF0804C984209D0A042FA
:1025000007D0604505D0A84203D0B04201D0B84200
:1025100004D122F0700E4A6842EA0E02984209D0B5
:10252000A04207D0604505D0A84203D0B04201D0F8
:10253000B84203D122F44075CA682A434D6922F09B
:1025400080022A4302608A68C2620A6882629842F4
:1025500001D0A04201D10969016301214161F0BDAF
:10256000002C01400004004000080040000C004026
:102570000034014010B501F01F030121046A9940A5
:102580008C430462016A9A401143016210BD10B588
:10259000846842EA032224F47F440A43224382608F
:1025A00010BD826822F070020A4342F00701816088
:1025B00070470000F0B5036A026A22F0010202626D
:1025C00042688469124E24F073050C682C4323F092
:1025D00002058B682B430D4DA84201D0B04205D1B6
:1025E00023F00807CB683B4323F00403A84201D043
:1025F000B04205D14D6922F4407215438A692A43DD
:1026000042608461496841630362F0BD002C01406F
:1026100000340140F0B5026A036A23F0100303623C
:10262000436884690D6824F4E64444EA05248D680F
:1026300022F0200242EA05120F4D104EA84201D0AE
:10264000B04206D1CF6822F0800242EA071222F09F
:102650004002A84201D0B04207D14D6923F4406343
:1026600043EA85038D6943EA8503436084614968D1
:1026700081630262F0BD0000002C01400034014083
:10268000F0B5026A036A23F4807303624368C46985
:1026900022F4007224F073050C68124E2C438D68EE
:1026A00042EA05220E4DA84201D0B04206D1CF68C1
:1026B00022F4006242EA072222F48062A84201D09A
:1026C000B04207D14D6923F4405343EA05138D69A5
:1026D00043EA05134360C4614968C1630262F0BD07
:1026E000002C01400034014030B5046A026A22F433
:1026F000805202624268C3690D6823F4E64343EAEC
:1027000005238D6824F4005444EA0534084DA8429A
:1027100002D0084DA84204D14D6922F4804242EA19
:1027200085124260C36149680164046230BD0000E3
:10273000002C01400034014010B5036A046A24F003
:1027400001040462846924F0F00444EA021423F0D2
:102750000A020A438461026210BD10B5036A046A6A
:1027600024F010040462846923F0A00324F470446C
:1027700044EA023243EA01118261016210BD10B5E0
:10278000406A0021C185C184FFF775F810BD01685A
:102790000C3151E8002F22F4907241E80023002B05
:1027A000F5D10168143151E8002F22F0010241E80F
:1027B0000023002BF5D1016B012909D101680C31EF
:1027C00051E8002F22F0100241E80023002BF5D140
:1027D000202180F8421000210163704708B590F86D
:1027E0004210222901D0022008BD82684FF4805394
:1027F0009A4201D1016921B1816A9A421BD04AB142
:102800000AE00268816A5268C2F308020A80816A9B
:10281000891C08E0026972B10268526802F07F0206
:102820000A70816A491C8162C18D491E0904090C24
:10283000C18503D01BE002685268F1E70168CA68ED
:1028400022F02002CA600168CA6822F48072CA605D
:1028500001684A6922F001024A61202180F8421091
:1028600000214163026B012A03D0FFF7BBF900206E
:1028700008BD016301680C3151E8002F22F01002FD
:1028800041E80023002BF5D101680A68D20602D581
:102890000A6849680091818DFEF7ECFFE7E70000C8
:1028A00070B5044600680169E26821F440511143A3
:1028B00001612169A0680843616908432168CA6809
:1028C00041F20C639A430243CA6020684169A269DD
:1028D00021F44071114341611E492068884202D1B0
:1028E000FEF79AFB01E0FEF787FB00EBC00101EB6E
:1028F0000012606864218000B2FBF0F3B3FBF1F3D7
:102900006FF018067343B2FBF0F5B2FBF0F605EB7F
:102910008305322303EB0515B5FBF1F5B6FBF1F6A4
:1029200005F0F00505EB0615B2FBF0F6B2FBF0F092
:10293000B0FBF1F06FF01802504306EB800003EBA0
:102940000010B0FBF1F0216800F00F00284488600F
:1029500070BD00000038014081628285C28500217F
:102960004164222180F84210016921B10168CA68DE
:1029700042F48072CA6001684A6942F001024A6109
:102980000068C16841F02001C1600020704700006C
:102990000148FEF771BF0000AC000020FEE7000018
:1029A0000FB4084B10B504A902AA039800F0DEF892
:1029B000044602A9002000F070FC204610BC5DF81F
:1029C00014FB00009B3200080907090E002804DBF5
:1029D00000F1E02080F80014704700F00F0000F1D3
:1029E000E02080F8141D704702E008C8121F08C1DB
:1029F000002AFAD170477047002001E001C1121F80
:102A0000002AFBD1704700002DE9FF5FDDE90220BD
:102A1000010DDDF838B0024318D044F61050A1F291
:102A2000FF3141430D140F98012820D0A5EB0B0076
:102A3000401C5FEA000A4FF00004474EDFF81C918B
:102A4000A046504616D5CAF1000728E00F98012489
:102A500043A2012808D0002100980F9BC0E9002163
:102A6000C0E90243BDE8FF9F6FEA0B01F4E7CBF139
:102A70000000DEE7074612E0F80707D0224633469B
:102A800040464946FDF7FAFC8046894622463346D1
:102A900010461946FDF7F2FC04460E467F10002F43
:102AA000EAD1DDE90201BAF1000F42464B4602DAF3
:102AB000FDF7E4FC01E0FDF753FD04460E4600225D
:102AC000284BFDF7D5FD03D84FF0FF30014607E056
:102AD0000022254B20463146FDF729FCFDF7AFFDCE
:102AE000102409E0002C0ADB0A220023FDF7B7FBC3
:102AF000019B30321A55641E50EA0102F2D1641C67
:102B0000019AC4F1110314440F9A012A03D001223F
:102B100008430DD10AE0084304D000204FF0110B08
:102B20000F9080E7A3EB0B056D1E0DE05B4504DD08
:102B30004FF0000205F1010504E003DA4FF0000256
:102B4000A5F10105002AECD000980F99C0E90231E7
:102B5000C0E9004586E70000000024400000F03F87
:102B6000300000000000F0430000E03F2DE9FF4F7F
:102B700095B09B468946064600250FE2252877D169
:102B800000242746F84A0121059400E0044316F882
:102B9000013F203B01FA03F01042F7D130782A2898
:102BA00011D06FF02F033078A0F13002092A16D827
:102BB000059A44F0020402EB820203EB4202104445
:102BC000761C0590EFE759F8042B0592002A03DAEA
:102BD000504244F40054059044F00204761C3078CE
:102BE0002E2816D116F8010F44F004042A280DD01F
:102BF0006FF02F023078A0F13003092B09D807EBD2
:102C0000870302EB4303C718761CF3E759F8047BEC
:102C1000761C30786C280FD006DC4C2817D068283A
:102C20000DD06A2814D104E0742810D07A280FD16E
:102C30000DE044F400140AE044F4801401E044F48C
:102C400040147278824202D104F58014761C761CFE
:102C5000307866280BD013DC582877D009DC0028A0
:102C600075D04528F6D04628F4D047281AD19DE1E2
:102C700018E0632835D0642879D0652812D195E111
:102C8000702873D008DC6728F1D069286FD06E28CF
:102C90000DD06F2806D1B5E073282CD0752875D0DB
:102CA000782874D05A46179990476D1C75E1C4F383
:102CB0000250022809D003280DD0D9F800100428AA
:102CC0000DD00D6009F1040967E1D9F80010EA1789
:102CD000C1E90052F6E7D9F800100D80F2E70D7057
:102CE000F0E719F8041B8DF8001000208DF80100A2
:102CF000EA46012003E059F804AB4FF0FF306107CA
:102D00004FF0000102D40DE008F101018846B942FC
:102D10000FDA8045F8DB1AF808100029F4D108E032
:102D200008F1010188468142FADB1AF808100029EF
:102D3000F6D105985B46A0EB080721463846179A5E
:102D400000F094FA284400EB080507E04DE029E183
:102D50000DE01AF8010B5A4617999047B8F101088F
:102D6000F7D25B4621463846179A13E142E00A2221
:102D70000092C4F302524FF0000A022A08D059F818
:102D800004CB032A4FEAEC710AD00DE029E02AE0D7
:102D900009F1070121F00702F2E802C1914609E0BA
:102DA0000FFA8CFC4FEAEC71042A03D14FFA8CFC29
:102DB0004FEAEC71002907DA0A460021DCF1000C29
:102DC00061EB02012D2202E0220504D52B228DF8B1
:102DD0000420012203E0E20701D02022F7E7904619
:102DE00059E00A2102E010220DE010214FF0000A04
:102DF00000910BE010224FF0000A44F00404082771
:102E0000009203E008224FF0000A0092C4F302523D
:102E1000022A05D059F804CB0021032A08D009E082
:102E200009F1070121F00702F2E802C1914605E02D
:102E30001FFA8CFC042A01D10CF0FF0C4FF00008A3
:102E4000220728D5702806D0009B83F0100353EA90
:102E50000A0305D00EE040228DF80420012208E08C
:102E60005CEA010206D030228DF804208DF80500BE
:102E700002229046009B83F0080353EA0A030AD11A
:102E80005CEA010201D1620705D530228DF80420E9
:102E90004FF001087F1E582804D034A003900EA8DC
:102EA00002900DE036A0F9E753466046009AFDF720
:102EB000D6F984460398825C0298401E0290027004
:102EC0005CEA0100F0D1029806A9081A00F1200A74
:102ED000600702D524F4803400E00127574502DD65
:102EE000A7EB0A0000E0002000EB0A010090059823
:102EF0004144401A0590E00306D45B462146179AE8
:102F0000059800F0B3F90544002706E001A85A46E9
:102F1000C05D179990476D1C7F1C4745F6DBE003A9
:102F20000CD55B462146179A059800F09FF9054499
:102F300004E030205A46179990476D1C0099481EAE
:102F400000900029F5DC08E0029802995A460078C2
:102F5000491C0291179990476D1CBAF10001AAF122
:102F6000010AF1DC65E1000009280100303132334B
:102F700034353637383961626364656600000000B5
:102F8000303132333435363738394142434445469F
:102F90000000000000F058F90544761C3078002845
:102FA0007FF4ECAD19B02846BDE8F08F620700D47D
:102FB000062709F1070222F0070CFCE80223E1468C
:102FC00003F000485FEA080C02D00FF2702C0DE00D
:102FD0005FEA045C02D50FF2682C07E05FEAC47C6C
:102FE00002D00FF2602C01E0AFF2700C4FF0FF380E
:102FF00023F00043CDF850C065280CD006DC4528EE
:1030000009D046281DD047283DD13DE0662818D07C
:1030100067287ED138E00021112F01DB112000E06C
:10302000781CCDE9000106A90EA8FFF7EDFCDDE94B
:103030000F010E9A03910021009207F1010A0491F9
:103040004DE04FF000400097CDE9011006A90EA811
:10305000FFF7DAFCDDE90F0203920E9B11990022C3
:10306000DDF80CA00093049211B9791C00EB010A61
:10307000B7EB0A0004D4C0F1FF3007F1010A049055
:10308000AAEB0700019044E0012F00DA012700219C
:10309000112F01DD112000E03846CDE9000106A91D
:1030A0000EA8FFF7B1FCDDE90F010E9A0391002194
:1030B00004910092BA4621070CD40399514500DAD5
:1030C0008A46BAF1010F05DD009AAAF10101515CAF
:1030D000302908D0B84202DA10F1040F06DA0121D3
:1030E000CDE9011015E0AAF10101E9E7002805DCAE
:1030F000049901440491AAEB000102E0411C5145EE
:1031000000DD8A460499401A401C01904FF00040AF
:103110000290200704D40198504501DBCDF80480CB
:1031200000208DF84F0002980DF14F07B0F1004FCD
:1031300025D02B200E9002984FF0020800280CDAC0
:10314000404202902D200E9007E00A210298FDF7E0
:1031500070F83031029007F8011DB8F10001A8F1B4
:103160000108F2DC02980028EFD1791E0E98087051
:10317000307800F0200040F0450007F8020D12A85A
:10318000C01B00F107081498007800B1012000EB83
:103190000A01019801EBE07105984144401A401E74
:1031A0000590E00306D45B462146179A059800F087
:1031B0005DF805441498007818B15A46179990475D
:1031C0006D1CE00324D55B462146179A059800F054
:1031D0004DF805441CE00498002807DBDDE90301F5
:1031E000884203DD0098405C179901E01799302070
:1031F0005A469047049805F10105401C0490019837
:10320000401E019004D12E205A46179990476D1CFC
:10321000BAF10001AAF1010ADDDC05E017F8010BA3
:103220005A46179990476D1CB8F10001A8F10108A2
:10323000F4DC5B462146179A0598ABE62D000000AA
:103240002B000000200000002DE9F041044600257D
:103250001E461746880404D405E039462020B047AE
:103260006D1C641EF9D52846BDE8F0812DE9F041BA
:10327000044600251E469046C80301D5302700E0CD
:103280002027880404D505E041463846B0476D1C28
:10329000641EF9D52846BDE8F0810A68531C0B600E
:1032A00010707047FDF782FDFFF7EEF8FFF7ECF8BE
:1032B000FEF776FDFEF7D4FDFEF752FEFEF704FEA4
:1032C000FEF7B0FF4FF4FA7402E02046FDF748FC29
:1032D000FDF7B2FA0028F8D104211248FEF770FA7F
:1032E000104940F2E7300968886301220E490F480F
:1032F000FEF76AFCFFF746F80B4DAD1E287850B17B
:10330000012805D00228F9D1FEF746FEC82005E0C5
:10331000FFF738F801E0FFF70BF82046FDF720FC37
:10332000ECE700006400002002000020AC00002058
:103330000008000000000000020000000200000081
:10334000000000000000000000000000000000007D
:10335000000000F800000000000000330000000042
:1033600000100C02100C0200000000000000000021
:103370000040C07840C0780000043F04043F0400CF
:1033800000708888FC08300000182020FF211E00F3
:10339000F008F0806018000000310C031E211E00B0
:1033A00000F00888700000001E21232C192721102E
:1033B00000120E00000000000000000000000000ED
:1033C000000000E018040200000000071820400080
:1033D00000020418E0000000004020180700000070
:1033E000404080F0804040000202010F01020200D4
:1033F00000000000E0000000000101010F010101D8
:1034000000000000000000000090700000000000BC
:1034100000000000000000000001010101010100A6
:10342000000000000000000000303000000000003C
:1034300000000000C0380400006018070000000011
:1034400000E010080810E000000F102020100F000E
:1034500000001010F8000000000020203F20200095
:10346000007008080808F0000030282422213000ED
:1034700000300808088870000018202121221C0054
:103480000000804030F8000000060524243F24247A
:1034900000F88888880808000019202020110E00F4
:1034A00000E0108888900000000F112020201F00ED
:1034B00000180808886818000000003E010000009D
:1034C0000070880808887000001C222121221C003E
:1034D00000F008080810E0000001122222110F007D
:1034E000000000C0C00000000000003030000000FC
:1034F0000000008000000000000000E0000000006C
:103500000000804020100800000102040810200084
:10351000004040404040400000020202020202001F
:103520000008102040800000002010080402010064
:103530000070480808887000000000303700000064
:10354000C030C828E810E000071827282F281700E7
:103550000000C038E0000000203C23020227382091
:1035600008F8888888700000203F202020110E0075
:10357000C03008080808380007182020201008006C
:1035800008F808080810E000203F202020100F0055
:1035900008F88888E8081000203F20202320180021
:1035A00008F88888E8081000203F20000300000089
:1035B000C03008080838000007182020221E02002A
:1035C00008F808000008F808203F210101213F20E9
:1035D000000808F8080800000020203F2020000014
:1035E00000000808F8080800C08080807F00000004
:1035F00008F888C028180800203F2001263820003D
:1036000008F8080000000000203F202020203000A3
:1036100008F8F800F8F80800203F013E013F2000BC
:1036200008F830C00008F808203F200007183F00C5
:10363000E01008080810E0000F10202020100F00F4
:1036400008F808080808F000203F210101010000E7
:10365000E01008080810E0000F10282830504F0034
:1036600008F8888888887000203F2000030C3020EC
:1036700000708808080838000038202121221C002A
:10368000180808F8080818000000203F2000000073
:1036900008F808000008F808001F202020201F005C
:1036A0000878880000C83808000007380E010000BC
:1036B00008F800F800F8080000033E013E0300008F
:1036C000081868808068180820302C03032C3020EC
:1036D0000838C800C83808000000203F200000005B
:1036E00010080808C83808002038262120201800B3
:1036F000000000FE020202000000007F4040400087
:10370000000438C000000000000000010638C000BE
:1037100000020202FE000000004040407F00000066
:10372000000004020204000000000000000000008D
:103730000000000000000000808080808080808089
:103740000002020400000000000000000000000071
:10375000000080808000000000192424123F200017
:1037600010F0008080000000003F112020110E00AA
:103770000000008080800000000E11202020110039
:10378000000080808090F000001F202020103F204B
:103790000000808080800000001F24242424170063
:1037A000008080E0909020000020203F202000003A
:1037B0000000808080808000006B9494949360006F
:1037C00010F0008080800000203F210000203F207A
:1037D00000809898000000000020203F202000007A
:1037E000000000809898000000C08080807F00006A
:1037F00010F0000080808000203F24062930200047
:10380000001010F8000000000020203F20200000E1
:103810008080808080808000203F20003F20003F0B
:103820008080008080800000203F210000203F2019
:103830000000808080800000001F202020201F00CA
:10384000808000808000000080FF912020110E0009
:103850000000008080008000000E11202091FF8079
:10386000808080008080800020203F212000010097
:1038700000008080808080000033242424241900EC
:10388000008080E0808000000000001F20201000E9
:103890008080000000808000001F202020103F203A
:1038A000808080008080800000030C300C030000CA
:1038B0008080008080008080010E300C0738060177
:1038C00000808080008080000020310E2E3120009A
:1038D000808080000080808000818678180601004A
:1038E00000808080808080000021302C22213000E8
:1038F0000000000000FC020200000000013E404009
:1039000000000000FF00000000000000FF000000B9
:103910000202FC000000000040403E0100000000E8
:10392000000201020204020000000000000000008A
:103930001060028C0000FE9292929292FE000000B3
:103940000000000000000000000000000000000077
:103950000000000000000000000000000000000067
:103960000000000000000000000000000000000057
:1039700004047E01407E42427E427E42427E4000FE
:103980000000000000000000000000000000000037
:103990000000000000000000000000000000000027
:1039A0000000000000000000000000000000000017
:1039B0000000FC242424FC252624FC2424240400C8
:1039C00000000000000000000000000000000000F7
:1039D00000000000000000000000000000000000E7
:1039E00000000000000000000000000000000000D7
:1039F00040308F80844C55252525554C8080800093
:103A000000000000000000000000000000000000B6
:103A100000000000000000000000000000000000A6
:103A20000000000000000000000000000000000096
:103A300000007E92929292929292929E80E000007A
:103A40000000000000000000000000000000000076
:103A50000000000000000000000000000000000066
:103A60000000000000000000000000000000000056
:103A7000088848281E0808080808FE0808080800E2
:103A80000000000000000000000000000000000036
:103A90000000000000000000000000000000000026
:103AA0000000000000000000000000000000000016
:103AB000201808EAACA8A8AFA8A8ACEA0828180003
:103AC00000000000000000000000000000000000F6
:103AD00000000000000000000000000000000000E6
:103AE00000000000000000000000000000000000D6
:103AF00000003E02020202FF020212221E0000002B
:103B000000000000000000000000000000000000B5
:103B100000000000000000000000000000000000A5
:103B20000000000000000000000000000000000095
:103B3000000202C2020202FE82828282820200002F
:103B40000000000000000000000000000000000075
:103B50000000000000000000000000000000000065
:103B60000000000000000000000000000000000055
:103B70004040407F4040407F404040404040400007
:103B80000000000000000000000000000000000035
:103B90000000000000000000000000000000000025
:103BA0000000000000000000000000000000000015
:103BB000201808EAACA8A8AFA8A8ACEA0828180002
:103BC00000000000000000000000000000000000F5
:103BD00000000000000000000000000000000000E5
:103BE00000000000000000000000000000000000D5
:103BF00000003E02020202FF020212221E0000002A
:103C000000000000000000000000000000000000B4
:103C100000000000000000000000000000000000A4
:103C20000000000000000000000000000000000094
:103C300040301196909091969090981413503000C7
:103C40000000000000000000000000000000000074
:103C50000000000000000000000000000000000064
:103C60000000000000000000000000000000000054
:103C7000040404040444847E0605040404040400CB
:103C80000000000000000000000000000000000034
:103C90000000000000000000000000000000000024
:103CA0000000000000000000000000000000000014
:103CB000808080BEA2A2A2A2A2A2A2BE808080001A
:103CC00000000000000000000000000000000000F4
:103CD00000000000000000000000000000000000E4
:103CE00000000000000000000000000000000000D4
:103CF00000000006050404044484443C0000000065
:103D000000000000000000000000000000000000B3
:103D100000000000000000000000000000000000A3
:103D20000000000000000000000000000000000093
:103D30001010F01F10F0403C1010FF101010000089
:103D40000000000000000000000000000000000073
:103D50000000000000000000000000000000000063
:103D60000000000000000000000000000000000053
:103D7000402215081621404242427F424242400002
:103D80000000000000000000000000000000000033
:103D90000000000000000000000000000000000023
:103DA0000000000000000000000000000000000013
:103DB00000202010081467844424140C0000000024
:103DC00000000000000000000000000000000000F3
:103DD00000000000000000000000000000000000E3
:103DE00000000000000000000000000000000000D3
:103DF00004040402FE43434242424242FE000000E9
:103E000000000000000000000000000000000000B2
:103E100000000000000000000000000000000000A2
:103E20000000000000000000000000000000000092
:103E3000002018C744444444FC4444444404000063
:103E40000000000000000000000000000000000072
:103E50000000000000000000000000000000000062
:103E60000000000000000000000000000000000052
:103E70000404040704040404FF0404040404040008
:103E80000000000000000000000000000000000032
:103E90000000000000000000000000000000000022
:103EA0000000000000000000000000000000000012
:103EB0002030AC6330000202FE0202625AC60000EB
:103EC00000000000000000000000000000000000F2
:103ED00000000000000000000000000000000000E2
:103EE00000000000000000000000000000000000D2
:103EF000226722121240308F80432C102C43800006
:103F000000000000000000000000000000000000B1
:103F100000000000000000000000000000000000A1
:103F20000000000000000000000000000000000091
:103F30004040484848C8784F4848484848404000B2
:103F40000000000000000000000000000000000071
:103F50000000000000000000000000000000000061
:103F60000000000000000000000000000000000051
:103F7000000000000312122222528A0600000000F4
:103F80000000000000000000000000000000000031
:103F90000000000000000000000000000000000021
:103FA0000000000000000000000000000000000011
:103FB0000010608000FF000000FF0000C030000023
:103FC00000000000000000000000000000000000F1
:103FD00000000000000000000000000000000000E1
:103FE00000000000000000000000000000000000D1
:103FF00040404043407F4040407F4241404040007D
:1040000000000000000000000000000000000000B0
:1040100000000000000000000000000000000000A0
:104020000000000000000000000000000000000090
:104030008088898EF88C8B888000FE0222DA060048
:104040000000000000000000000000000000000070
:104050000000000000000000000000000000000060
:104060000000000000000000000000000000000050
:104070004020100C030408300000FF08100807005F
:104080000000000000000000000000000000000030
:104090000000000000000000000000000000000020
:1040A0000000000000000000000000000000000010
:1040B000048484FC848400FE9292FE9292FE0000AE
:1040C00000000000000000000000000000000000F0
:1040D00000000000000000000000000000000000E0
:1040E00000000000000000000000000000000000D0
:1040F0002060201F1010404444447F44444440004A
:1041000000000000000000000000000000000000AF
:10411000000000000000000000000000000000009F
:10412000000000000000000000000000000000008F
:104130000000F888888888FF88888888F800000050
:10414000000000000000000000000000000000006F
:10415000000000000000000000000000000000005F
:10416000000000000000000000000000000000004F
:1041700000001F080808087F888888889F80F00052
:10418000000000000000000000000000000000002F
:10419000000000000000000000000000000000001F
:1041A000000000000000000000000000000000000F
:1041B00080828282828282E2A2928A8682808000CB
:1041C00000000000000000000000000000000000EF
:1041D00000000000000000000000000000000000DF
:1041E00000000000000000000000000000000000CF
:1041F000000000000040807F000000000000000080
:1042000000000000000000000000000000000000AE
:10421000000000000000000000000000000000009E
:10422000000000000000000000000000000000008E
:104230001060028C0000FE9292929292FE000000AA
:10424000000000000000000000000000000000006E
:10425000000000000000000000000000000000005E
:10426000000000000000000000000000000000004E
:1042700004047E01407E42427E427E42427E4000F5
:10428000000000000000000000000000000000002E
:10429000000000000000000000000000000000001E
:1042A000000000000000000000000000000000000E
:1042B0000000FC242424FC252624FC2424240400BF
:1042C00000000000000000000000000000000000EE
:1042D00000000000000000000000000000000000DE
:1042E00000000000000000000000000000000000CE
:1042F00040308F80844C55252525554C808080008A
:1043000000000000000000000000000000000000AD
:10431000000000000000000000000000000000009D
:10432000000000000000000000000000000000008D
:104330000000FE021222C202C23202FE0000000091
:10434000000000000000000000000000000000006D
:10435000000000000000000000000000000000005D
:10436000000000000000000000000000000000004D
:1043700080601F0020100C030C30000F3040F8004C
:10438000000000000000000000000000000000002D
:10439000000000000000000000000000000000001D
:1043A000000000000000000000000000000000000D
:1043B000404042CC0004F49494FF9494F404000030
:1043C00000000000000000000000000000000000ED
:1043D00000000000000000000000000000000000DD
:1043E00000000000000000000000000000000000CD
:1043F0000040201F20484442415F41424448400061
:1044000000000000000000000000000000000000AC
:10441000000000000000000000000000000000009C
:10442000000000000000000000000000000000008C
:104430001060028C0000FE9292929292FE000000A8
:10444000000000000000000000000000000000006C
:10445000000000000000000000000000000000005C
:10446000000000000000000000000000000000004C
:1044700004047E01407E42427E427E42427E4000F3
:10448000000000000000000000000000000000002C
:10449000000000000000000000000000000000001C
:1044A000000000000000000000000000000000000C
:1044B000101010FF9020984828090E2848A81800CE
:1044C00000000000000000000000000000000000EC
:1044D00000000000000000000000000000000000DC
:1044E00000000000000000000000000000000000CC
:1044F0000242817F0040404242427E4242424000AE
:1045000000000000000000000000000000000000AB
:10451000000000000000000000000000000000009B
:10452000000000000000000000000000000000008B
:10453000101010FF109000FE82828292A29E000056
:10454000000000000000000000000000000000006B
:10455000000000000000000000000000000000005B
:10456000000000000000000000000000000000004B
:104570000444827F010000FF80432C102C43800004
:10458000000000000000000000000000000000002B
:10459000000000000000000000000000000000001B
:1045A000000000000000000000000000000000000B
:1045B00012EAAFAAEA0FFA02888C5724548C8400BE
:1045C00000000000000000000000000000000000EB
:1045D00000000000000000000000000000000000DB
:1045E00000000000000000000000000000000000CB
:1045F0000202EAAAAAABAAABAAAAAAAAEA020200E3
:1046000000000000000000000000000000000000AA
:10461000000000000000000000000000000000009A
:10462000000000000000000000000000000000008A
:1046300080809E9292929EE0809EB2D2929E800056
:10464000000000000000000000000000000000006A
:10465000000000000000000000000000000000005A
:10466000000000000000000000000000000000004A
:104670000808F4949292F10001F2929494F80800E0
:10468000000000000000000000000000000000002A
:10469000000000000000000000000000000000001A
:1046A000000000000000000000000000000000000A
:1046B00000001011161010F010101413100000005C
:1046C00000000000000000000000000000000000EA
:1046D00000000000000000000000000000000000DA
:1046E00000000000000000000000000000000000CA
:1046F0008181414121110D030D1121414181810031
:1047000000000000000000000000000000000000A9
:104710000000000000000000000000000000000099
:104720000000000000000000000000000000000089
:104730001010D0FF901000FE020202FE00000000E8
:104740000000000000000000000000000000000069
:104750000000000000000000000000000000000059
:104760000000000000000000000000000000000049
:10477000040300FF0083601F0000003F40407800FA
:104780000000000000000000000000000000000029
:104790000000000000000000000000000000000019
:1047A0000000000000000000000000000000000009
:1047B00000000000000000000000000000000000F9
:1047C00000000000000000000000000000000000E9
:1047D00000000000000000000000000000000000D9
:1047E00000000000000000000000000000000000C9
:1047F00000000000000000000000000000000000B9
:1048000000000000000000000000000000000000A8
:104810000000000000000000000000000000000098
:104820000000000000000000000000000000000088
:104830000000000000000000000000000000000078
:104840000000000000000000000000000000000068
:104850000000000000000000000000000000000058
:104860000000000000000000000000000000000048
:104870000000000000000000000000000000000038
:104880000000000000000000000000000000000028
:104890000000000000000000000000000000000018
:1048A0000000000000000000000000000000000008
:1048B00000000000000000000000000000000000F8
:1048C00000000000000000000000000000000000E8
:1048D00000000000000000000000000000000000D8
:1048E00000000000000000000000000000000000C8
:1048F00000000000000000000000000000000000B8
:1049000000000000000000000000000000000000A7
:104910000000000000000000000000000000000097
:104920000000000000000000000000000000000087
:10493000010202030405060708090A0B0C0D0E0FFD
:104940001010000000000000000001020304060730
:104950000809000000000102030400007C4900086F
:10496000000000201C000000E82900089849000809
:104970001C000020DC040000F829000801000000F1
:104980000000000000000000010000001000000016
:08499000000000000024F40007
:0400000508000131BD
:00000001FF
